:05110E00202564200013
:0D10C500EF44FE529A439A08C285D2EB22F6
:100EFB00EF7009C281C2805393FD802AEFB40109C0
:100F0B00C281D2805393EF801DEFB40209D281C20C
:100F1B00805393DF8010EFB40309D281D2805397B3
:090F2B00FB80037FFF227F0022FE
:100EA900439A04ED64017016EF7002801CEFB402DE
:100EB90002802AEFB40304D28180187FFF22CEED8D
:100EC900CEEE64037022EF7004C2818012EFB40188
:100ED90008C281D280C2838012EFB40208D281C2D3
:100EE90080C28380067FFF227FFF22C286D2EB7FEA
:020EF9000022D5
:03004B00020003AD
:10000300C0E0C0F0C083C082C0D075D00830852462
:10001300AF9F9000A6E4F0A3EFF0C2857BFF7A11B7
:10002300790E9000A6E0FFA3E0900057CFF0A3EF76
:10003300F01200D1308602C286D0D0D082D083D0D5
:04004300F0D0E032E7
:1010930075A15575A1AAE5B954F84404F5B9E4F569
:0210A300A12288
:0E10B700EF4E600905A1EF1F70F61E80F322B8
:10106500AD07AC06ED4C600E7FE87E031210B7EDC0
:071075001D70F11C80EE224A
:0400470043C610227A
:100C7F00C29FD29EC29DC2CDC2CC438780900051ED
:100C8F0012062D00000082E47B0AFAF9F890005159
:100C9F00E0FCA3E0FDA3E0FEA3E0FF12057C9000C3
:100CAF0055EBF0900051E0FCA3E0FDA3E0FEA3E0C4
:100CBF00FFE47B0AFAF9F812057C90005112062125
:100CCF00900055E0C39405401F900051E0FCA3E055
:100CDF00FDA3E0FEA3E02401FFE43EFEE43DFDE4BE
:100CEF003CFC900051120621E589540F4420F589F0
:100CFF0043C9A0900051A3A3A3E0F404F58DD28EB5
:050D0F00D299D29C22E4
:0810FE003098FDC298AF992261
:081106008F993099FDC2992276
:10107C0075A15575A1AAEF600543B101800353B169
:07108C00FEE4F5A1F5FF22CF
:031113008FFF2229
:10004E004750494F5F5354415455533A202530324F
:03005E00780A001D
:100DA000EF14601C14602B14603C2403704AC8EDDF
:100DB000C87401088002C333D8FCF45292529322C3
:100DC000C8EDC87401088002C333D8FCFFF4529206
:100DD0008023C8EDC87401088002C333D8FCFF42E9
:100DE00092EFF4529322C8EDC87401088002C33315
:090DF000D8FCFF4292EF4293226D
:100DF900EF14601C14602B14603C2403704AC8ED86
:100E0900C87401088002C333D8FCF4529652972261
:100E1900C8EDC87401088002C333D8FCFFF45296A8
:100E29008023C8EDC87401088002C333D8FCFF428F
:100E390096EFF4529722C8EDC87401088002C333B3
:090E4900D8FCFF4296EF4297220B
:0910F50053C77F43C73CD2EE2231
:03006300020FD0B9
:100FD000C0E0C0F0C083C082C0D075D0087BFF7A6B
:100FE00000794EE5C65440FF900057E4F0A3EFF0BF
:0E0FF0001200D1D0D0D082D083D0F0D0E03229
:100F34000D0A5044547269636B6572206275696C62
:100F440064205B32303A35373A30352044656320CB
:100F5400303920323032335D200D0A005645524973
:070F640046592025640A0034
:0D0F6B004100A40042009700004100A500D5
:10094900121093E4FDFF120DA09000A5E0FF120F15
:100959009F7F021210D29000A5E0FF1210DE120C48
:100969007FE4FF1210C57B017A007999900056E463
:10097900F0A3741EF0E4A3F07DFAFC120E527BFF83
:100989007A0F79341200D17B017A007999A290E427
:1009990033FD1206D1900050EFF09000A4E01460EE
:1009A90056147003020A4E147003020A732403607A
:1009B90003020A89900050E0B402199000A5E004EE
:1009C900F0E0D394044002E4F09000A5E0FF121097
:1009D900DE020A89900050E064036003020A8990EC
:1009E90000A5E0FF120F9F9000A47401F0E49000AD
:1009F90097F0A3F0020A899000A5E0FF120A965029
:100A0900257F011210D29000A47402F07BFF7A0FA7
:100A19007960900097E0FFA3E0900057CFF0A3EF33
:100A2900F01200D1805A900098E004F0700690000E
:100A390097E004F0C3900098E09414900097E09434
:100A490000403D8013900050E0B4040280239000E0
:100A5900A5E0FF120A964028E4FF120F9F7F0312B8
:100A690010D29000A47403F08016900050E0B404F2
:100A79000FE4FF120F9F7F021210D2E49000A4F03E
:0D0A8900120B987F0A7E0012106502099082
:100E5200EA494B6051900058E0120444AF059000FB
:100E620005EC8FF0120513900056E0FFA3E090000E
:100E720007CF8FF0120513900058E060047F0080C6
:100E8200027F01900002EF1204569000021203E466
:100E9200900001120456900009E4F5F01205139037
:070EA2000004E412045622D3
:1006D100900051EBF0A3EAF0A3E9F0E4A3F0EA49BA
:1006E1004B7002FF22900051E0FBA3E0FAA3E0244B
:1006F10002F9E43AFAC002C0011203CBFF900051A3
:10070100A3E0FAA3E0F99000011203E45D4FD001E8
:10071100D002120444900051E0FBA3E0FAA3E024CC
:1007210002F9E43AFAC002C0011203CBFF90005172
:10073100A3E0FAA3E0F99000011203E44D5FD001B8
:10074100D002120444900051E0FBA3E0FAA3E0F9C7
:10075100900001ED1204569000021203E4FF12030F
:10076100CBB507047F0180027F00900055EFF09028
:100771000051E0FBA3E0FAA3E0F99000041203E4C6
:1007810014602C14604A14700302084514700302AB
:1007910008B8147003020924240560030209439078
:1007A1000055E09000046002801174010209049078
:1007B1000055E070030209439000047403120456CB
:1007C100900009E4F5F0120513900003E402090416
:1007D100900055E06019900009E4F5F012051390BE
:1007E10000037401120411900004740402090490BE
:1007F100000712048EFFAEF0900009E475F00112BB
:1008010004C6FCC3E5F09FEC9E500302094390002F
:1008110051E0FBA3E0FAA3E0F9900009E4F5F0123E
:10082100051390000474011204569000031203E4AE
:10083100D3940190005440067403F00209437402FA
:10084100F0020943900055E0604F900051E0FBA396
:10085100E0FAA3E0F990000512048EFFAEF09000DB
:1008610009E475F0011204C6FCC3E5F09FEC9E504B
:1008710003020943900051E0FBA3E0FAA3E0F990E1
:100881000009E4F5F01205139000047405120456F2
:100891009000547404F0020943900051E0FBA3E07E
:1008A100FAA3E0F9900009E4F5F0120513900003B2
:1008B10074011204118065900055E0604B90005165
:1008C100E0FBA3E0FAA3E0F990000712048EFFAE6B
:1008D100F0900009E475F0011204C6FCC3E5F09F35
:1008E100EC9E405E900051E0FBA3E0FAA3E0F9909A
:1008F1000009E4F5F01205139000547403F0900020
:10090100047405120456803A900051E0FBA3E0FA0A
:10091100A3E0F9900009E4F5F012051390000474C6
:10092100028016900055E07019900051E0FBA3E0A1
:10093100FAA3E0F990000474011204569000547473
:0809410001F0900054E0FF22D8
:100F780041007E0041007C5A41007D0241008B5AAD
:100F880044008C001900194C007F000A000A000A6E
:060F9800000A000A00320D
:0B10EA00C2B2C294C295C296C2972207
:10102500EF14601014601014601014601024047024
:101035000ED2B222D29422D29522D29622D29722D1
:10104500EF14601014601014601014601024047004
:101055000EB2B222B29422B29522B29622B2972251
:0C10D200EFD39403500590007DEFF02256
:0C10DE00EFD39404500590007EEFF02248
:100B980090007EE0FF90007CE0B5070AA3E0FF909C
:100BA800008BE06F606790007EE090007CF0A3E02F
:100BB80090008BF01210EA90007DE024FE60111482
:100BC800602E2402704790007EE0FF121025803DC1
:100BD800E4900092F0A3F0900090F0A37402F07BF0
:100BE8000190009414F0A37400F0A3748CF0801D9D
:100BF800E4900092F0A3F0900090F0A37406F090B7
:100C080000947401F0A37400F0A3747FF090007D49
:100C1800E064026005E06403705C900092E070029A
:100C2800A3E0700890007EE0FF121045900094E069
:100C3800FBA3E0FAA3E0F9900090E075F002A4F5B8
:100C48008285F08312048EFFAEF0900092E475F076
:100C580001120478FCC3E5F09FEC9E4019E4900073
:100C680092F0A3F0900090E004F0A3E0FF900090D1
:070C7800E09F4002E4F022BE
:1010A500564255533A25642028256C64206D5629EF
:0210B5000A002F
:100F9F00EF14601114601514601914601D2404708F
:100FAF001FD2B38002C2B3C2B4C2B522C2B3C2B49D
:100FBF00D2B522C2B3D2B4D2B522C2B3D2B4C2B563
:010FCF0022FF
:100A9600900051EFF0C212E4FF120EFBD2842084C4
:100AA600FDAF9F900052E4F0A3EFF0900051E014E8
:100AB600603314605014606D147003020B4B2404F1
:100AC6006003020B69900052E0FEA3E0FFC3943975
:100AD600EE9400400BD3EF9445EE94005002800153
:100AE600C39212807E900052E0FEA3E0FFC3946C96
:100AF600EE9400400BD3EF9478EE94005002800100
:100B0600C39212805E900052E0FEA3E0FFC394926F
:100B1600EE9400400BD3EF949EEE940050028001B9
:100B2600C39212803E900052E0FEA3E0FFC394B849
:100B3600EE9400400BD3EF94C5EE94005002800172
:100B4600C39212801E900052E0FEA3E0FFC394F70A
:100B5600EE9400400BD3EF9404EE94015002800112
:100B6600C39212201229900052E0FEA3E0FF9000EB
:100B760057EEF0A3EFF07C4E7DA212065E780812C7
:100B8600060EA31206217BFF7A1079A51200D1A2C8
:020B9600122229
:03000000020D14DA
:0C0D1400787FE4F6D8FD758123020D5BAA
:1003CB00BB010689828A83E0225002E722BBFE0230
:0903DB00E32289828A83E4932263
:1003E400BB010CE58229F582E5833AF583E02250CE
:1003F40006E92582F8E622BBFE06E92582F8E22218
:0D040400E58229F582E5833AF583E4932231
:10041100BB010FF8E58229F582E5833AF583E028EF
:10042100F0225009C58229F8E58226F622BBFE0991
:10043100C58229F8E22582F222F8EA2583F583E9CB
:03044100932822DB
:10044400BB010689828A83F0225002F722BBFE0197
:02045400F32291
:10045600F8BB010DE58229F582E5833AF583E8F0DC
:10046600225006E92582C8F622BBFE05E92582C888
:02047600F22270
:10047800C5F0F8A3E028F0C5F0F8E582158270020F
:060488001583E038F022AC
:10048E00BB0110E58229F582E5833AF583E0F5F0AC
:10049E00A3E0225009E92582F886F008E622BBFE89
:1004AE000AE92582F8E2F5F008E222E5832AF583CF
:0804BE00E993F5F0A3E9932294
:1004C600BB010DC58229C582C5833AC5830204785E
:1004D6005011C58229F808E5F026F618F5F0E582F0
:1004E60036F622BBFE11C58229F808E225F0F5F0A2
:1004F600F218E23582F222F8E58229F582E5832AAE
:0D050600F58374019325F0F5F0E49338229D
:10051300F8BB0111E58229F582E5833AF583E8F01A
:10052300E5F0A3F0225009E92582C8F608A6F022D7
:0D053300BBFE09E92582C8F2E5F008F222BE
:1005400075F008758200EF2FFFEE33FECD33CDCC72
:1005500033CCC58233C5829BED9AEC99E5829840F5
:100560000CF582EE9BFEED9AFDEC99FC0FD5F0D6D2
:10057000E4CEFBE4CDFAE4CCF9A88222B800C1B9FC
:100580000059BA002DEC8BF084CFCECDFCE5F0CB3A
:10059000F97818EF2FFFEE33FEED33FDEC33FCEB73
:1005A00033FB10D703994004EB99FB0FD8E5E4F92E
:1005B000FA227818EF2FFFEE33FEED33FDEC33FC1B
:1005C000C933C910D7059BE99A4007EC9BFCE99A0F
:1005D000F90FD8E0E4C9FAE4CCFB2275F010EF2F54
:1005E000FFEE33FEED33FDCC33CCC833C810D70754
:1005F0009BEC9AE899400AED9BFDEC9AFCE899F88F
:0E0600000FD5F0DAE4CDFBE4CCFAE4C8F92221
:10060E00E8600FECC313FCED13FDEE13FEEF13FFCA
:03061E00D8F122EE
:0C062100ECF0A3EDF0A3EEF0A3EFF0224C
:10062D00A8828583F0D083D082120644120644122C
:10063D000644120644E473E493A3C583C5F0C58351
:10064D00C8C582C8F0A3C583C5F0C583C8C582C817
:01065D00227A
:10065E00EC8EF0A4CCC5F0CCCDF8EFA4CEC5F02D29
:10066E00FDE43CFCE8A42EC8C5F03DFDE43CFCEFE7
:0D067E00A4FFE5F028FEE43DFDE43CFC2275
:10006600E51A2457F582E43400F583E0051A229058
:100076000054301A03900057E475F00112068B0203
:1000860003CB2013E97F2ED2138018EF540F249050
:10009600D43440D4FF30170BEF24BFB41A005003FA
:1000A6002461FFE51B6002151B051EE51E70020597
:1000B6001D301A0E900054E475F00112068BEF0203
:1000C6000444020FFE7403D21A8003E4C21AF51A1E
:1000D6009000541206A2E4F51BF51DF51EE51B6003
:1000E600077F201200A980F5751CFFC214C213C237
:1000F60015C216C218C219C21B120075FF700D3048
:100106001A057F001200BAAF1EAE1D22B4255FC2CB
:10011600D5C217120075FF24D0B40A00501A75F024
:100126000A781B30D50508B6FF0106C6A426F620B8
:10013600D5047002D21680D924CFB41A00EF500429
:10014600C2E5D2170202BBD21480C6D21380C0D237
:100156001580BCD2D580BAD21880B47F201200A9EF
:100166002015077401B51B0040F1120066FF12004E
:10017600A90200E3D21BD2198095120066FB120079
:1001860066FA120066F94A4B7006798C7A037BFF91
:1001960020152EE51B602A7E008E827583001203D1
:1001A600E460060EEE651C70F0C2D5EBC0E0EAC056
:1001B600E0E9C0E0EE120302D0E0F9D0E0FAD0E0C8
:1001C600FB1203CBFF60AAEBC0E0EAC0E0E9C0E0A7
:1001D6001200A9D0E02401F9D0E03400FAD0E0FB07
:1001E600E51C0460DCD51CD980877BFF7A0279FE8A
:1001F600D215809C791080027908C219C21B80082A
:10020600D2D5790A8004790AC2D5E51C047002F5B4
:100216001CE4FAFDFEFF120066FC7B082014131294
:100226000066FD7B1030130A120066FE120066FFA0
:100236007B20EC3382D592D55013C3E43013069F4E
:10024600FFE49EFEE42014039DFDE49CFCE4CBF851
:10025600C214EC700CCFCECDCCE824F8F870F38045
:1002660017C3EF33FFEE33FEED33FDEC33FCEB3318
:10027600FB994002FB0FD8E9EB301405F8D0E0C437
:1002860048B214C0E00AEC4D4E4F78207B0070C295
:10029600EAB51C0040BCC0E0120304D0F0D0E02058
:1002A6001404C4C0E0C4B214C0F0120092D0F0D559
:1002B600F0EB0200E31206AB01805301FA5801513C
:1002C6004C014D4201FE4F020644020649016643B7
:0802D600020C5501F04601F095
:1002DE004501F04703AC5001552D01592E017C2BE1
:1002EE00015D23017A2003952A011548000001744F
:1002FE003F3F3F00790AA2D5201614301809B910D5
:10030E00020404B9080104A2D520190250010420E8
:10031E0015689215B51B005034C0E07F20301619B9
:10032E007F30A21572197218500F12035BC215C2DC
:10033E0019C218C21B7F30800F301803E9C0E012BB
:10034E0000A9301803D0E0F9D0E0B51BCC30181757
:10035E007F30B9100C1200A97F583017077F7880B4
:10036E0003B908031200A93015057F2D0200A97FDD
:10037E0020201BF87F2B2019F322921580CF286E98
:10038E00756C6C2900D2141200663014F8C2147801
:10039E001B30D50108F60201152D504349581200A5
:1003AE00662403B405004001E49003A79312009A5B
:0D03BE00743A12009AD216751B040201FA5F
:100D2000020949E493A3F8E493A34003F68001F297
:100D300008DFF48029E493A3F85407240CC8C333D4
:100D4000C4540F4420C8834004F456800146F6DFA3
:100D5000E4800B0102040810204080900F6BE47EB9
:100D6000019360BCA3FF543F30E509541FFEE49398
:100D7000A360010ECF54C025E060A840B8E493A35F
:100D8000FAE493A3F8E493A3C8C582C8CAC583CA8A
:100D9000F0A3C8C582C8CAC583CADFE9DEE780BE42
:010F9E000052
:10068B00F8E0FBA3A3E0F925F0F0E58215827002F8
:07069B001583E0FA38F0229C
:0906A200EBF0A3EAF0A3E9F02259
:1006AB00D083D082F8E4937012740193700DA3A3DE
:1006BB0093F8740193F5828883E4737402936860F2
:0606CB00EFA3A3A380DFF2
:100FFE00EFB40A07740D121009740A309811A899EB
:10100E00B8130CC2983098FDA899C298B811F63052
:07101E0099FDC299F599222A
:00000001FF
